{
  "contractName": "Election",
  "abi": [
    {
      "inputs": [],
      "stateMutability": "nonpayable",
      "type": "constructor"
    },
    {
      "anonymous": false,
      "inputs": [
        {
          "indexed": false,
          "internalType": "uint256",
          "name": "highest_votes",
          "type": "uint256"
        },
        {
          "indexed": false,
          "internalType": "string",
          "name": "name",
          "type": "string"
        }
      ],
      "name": "Leader",
      "type": "event"
    },
    {
      "anonymous": false,
      "inputs": [
        {
          "indexed": false,
          "internalType": "uint256",
          "name": "candidate_id",
          "type": "uint256"
        },
        {
          "indexed": false,
          "internalType": "string",
          "name": "name",
          "type": "string"
        },
        {
          "indexed": false,
          "internalType": "uint256",
          "name": "total_vote",
          "type": "uint256"
        }
      ],
      "name": "Regestering_candidate",
      "type": "event"
    },
    {
      "anonymous": false,
      "inputs": [
        {
          "indexed": false,
          "internalType": "uint256",
          "name": "id",
          "type": "uint256"
        }
      ],
      "name": "Voted",
      "type": "event"
    },
    {
      "inputs": [
        {
          "internalType": "uint256",
          "name": "",
          "type": "uint256"
        }
      ],
      "name": "Candidates",
      "outputs": [
        {
          "internalType": "string",
          "name": "name",
          "type": "string"
        },
        {
          "internalType": "uint256",
          "name": "vote_count",
          "type": "uint256"
        },
        {
          "internalType": "uint256",
          "name": "id",
          "type": "uint256"
        }
      ],
      "stateMutability": "view",
      "type": "function",
      "constant": true
    },
    {
      "inputs": [
        {
          "internalType": "address",
          "name": "",
          "type": "address"
        }
      ],
      "name": "candidate_exist",
      "outputs": [
        {
          "internalType": "bool",
          "name": "",
          "type": "bool"
        }
      ],
      "stateMutability": "view",
      "type": "function",
      "constant": true
    },
    {
      "inputs": [],
      "name": "candidates_count",
      "outputs": [
        {
          "internalType": "uint256",
          "name": "",
          "type": "uint256"
        }
      ],
      "stateMutability": "view",
      "type": "function",
      "constant": true
    },
    {
      "inputs": [],
      "name": "contractOwner",
      "outputs": [
        {
          "internalType": "address",
          "name": "",
          "type": "address"
        }
      ],
      "stateMutability": "view",
      "type": "function",
      "constant": true
    },
    {
      "inputs": [],
      "name": "the_one",
      "outputs": [
        {
          "internalType": "string",
          "name": "name",
          "type": "string"
        },
        {
          "internalType": "uint256",
          "name": "votes",
          "type": "uint256"
        }
      ],
      "stateMutability": "view",
      "type": "function",
      "constant": true
    },
    {
      "inputs": [
        {
          "internalType": "address",
          "name": "",
          "type": "address"
        }
      ],
      "name": "voters",
      "outputs": [
        {
          "internalType": "bool",
          "name": "",
          "type": "bool"
        }
      ],
      "stateMutability": "view",
      "type": "function",
      "constant": true
    },
    {
      "inputs": [
        {
          "internalType": "address",
          "name": "_add",
          "type": "address"
        },
        {
          "internalType": "string",
          "name": "_name",
          "type": "string"
        }
      ],
      "name": "add_candidate",
      "outputs": [],
      "stateMutability": "nonpayable",
      "type": "function"
    },
    {
      "inputs": [
        {
          "internalType": "uint256",
          "name": "_id",
          "type": "uint256"
        }
      ],
      "name": "add_vote",
      "outputs": [],
      "stateMutability": "nonpayable",
      "type": "function"
    },
    {
      "inputs": [],
      "name": "leader",
      "outputs": [],
      "stateMutability": "nonpayable",
      "type": "function"
    }
  ],
  "bytecode": "0x608060405234801561001057600080fd5b5033600360006101000a81548173ffffffffffffffffffffffffffffffffffffffff021916908373ffffffffffffffffffffffffffffffffffffffff160217905550610dd1806100616000396000f3fe608060405234801561001057600080fd5b50600436106100935760003560e01c806356e91c6e1161006657806356e91c6e146101df578063a3ec138d146102ba578063ce606ee014610314578063d10e6e2a14610348578063f94c4a5f146103d257610093565b8063290e92121461009857806340eedabb1461014d57806346e5ced9146101575780634e974b7514610185575b600080fd5b6100c4600480360360208110156100ae57600080fd5b81019080803590602001909291905050506103f0565b6040518080602001848152602001838152602001828103825285818151815260200191508051906020019080838360005b838110156101105780820151818401526020810190506100f5565b50505050905090810190601f16801561013d5780820380516001836020036101000a031916815260200191505b5094505050505060405180910390f35b6101556104b2565b005b6101836004803603602081101561016d57600080fd5b81019080803590602001909291905050506106b4565b005b6101c76004803603602081101561019b57600080fd5b81019080803573ffffffffffffffffffffffffffffffffffffffff1690602001909291905050506108b6565b60405180821515815260200191505060405180910390f35b6102b8600480360360408110156101f557600080fd5b81019080803573ffffffffffffffffffffffffffffffffffffffff1690602001909291908035906020019064010000000081111561023257600080fd5b82018360208201111561024457600080fd5b8035906020019184600183028401116401000000008311171561026657600080fd5b91908080601f016020809104026020016040519081016040528093929190818152602001838380828437600081840152601f19601f8201169050808301925050505050505091929192905050506108d6565b005b6102fc600480360360208110156102d057600080fd5b81019080803573ffffffffffffffffffffffffffffffffffffffff169060200190929190505050610bc4565b60405180821515815260200191505060405180910390f35b61031c610be4565b604051808273ffffffffffffffffffffffffffffffffffffffff16815260200191505060405180910390f35b610350610c0a565b6040518080602001838152602001828103825284818151815260200191508051906020019080838360005b8381101561039657808201518184015260208101905061037b565b50505050905090810190601f1680156103c35780820380516001836020036101000a031916815260200191505b50935050505060405180910390f35b6103da610cb4565b6040518082815260200191505060405180910390f35b6004602052806000526040600020600091509050806000018054600181600116156101000203166002900480601f01602080910402602001604051908101604052809291908181526020018280546001816001161561010002031660029004801561049c5780601f106104715761010080835404028352916020019161049c565b820191906000526020600020905b81548152906001019060200180831161047f57829003601f168201915b5050505050908060010154908060020154905083565b6000606060405180602001604052806000815250905060005b6002548110156105cb5760046000828152602001908152602001600020600101548310156105be5760046000828152602001908152602001600020600101549250600460008281526020019081526020016000206000018054600181600116156101000203166002900480601f0160208091040260200160405190810160405280929190818152602001828054600181600116156101000203166002900480156105b65780601f1061058b576101008083540402835291602001916105b6565b820191906000526020600020905b81548152906001019060200180831161059957829003601f168201915b505050505091505b80806001019150506104cb565b506040518060400160405280828152602001838152506000808201518160000190805190602001906105fe929190610cba565b50602082015181600101559050507fa131d2ca290202edeaf3d998ba980d702c79ff041d85fb96536ffb6152cd722b82826040518083815260200180602001828103825283818151815260200191508051906020019080838360005b8381101561067557808201518184015260208101905061065a565b50505050905090810190601f1680156106a25780820380516001836020036101000a031916815260200191505b50935050505060405180910390a15050565b60001515600560003373ffffffffffffffffffffffffffffffffffffffff1673ffffffffffffffffffffffffffffffffffffffff16815260200190815260200160002060009054906101000a900460ff1615151461077a576040517f08c379a00000000000000000000000000000000000000000000000000000000081526004018080602001828103825260208152602001807f54686520766f74652068617320616c7265616479206265656e2063617374656481525060200191505060405180910390fd5b6000811015801561078c575060025481105b6107fe576040517f08c379a000000000000000000000000000000000000000000000000000000000815260040180806020018281038252600e8152602001807f496e76616c6964206f7074696f6e00000000000000000000000000000000000081525060200191505060405180910390fd5b6001600560003373ffffffffffffffffffffffffffffffffffffffff1673ffffffffffffffffffffffffffffffffffffffff16815260200190815260200160002060006101000a81548160ff02191690831515021790555060046000828152602001908152602001600020600101600081548092919060010191905055507f7f511e347bf51eed3be100b3194247d5207f05f3b33de7d31e3e8ee73199a049816040518082815260200191505060405180910390a150565b60066020528060005260406000206000915054906101000a900460ff1681565b3373ffffffffffffffffffffffffffffffffffffffff16600360009054906101000a900473ffffffffffffffffffffffffffffffffffffffff1673ffffffffffffffffffffffffffffffffffffffff161461097c576040517f08c379a0000000000000000000000000000000000000000000000000000000008152600401808060200182810382526021815260200180610d7b6021913960400191505060405180910390fd5b8160001515600660008373ffffffffffffffffffffffffffffffffffffffff1673ffffffffffffffffffffffffffffffffffffffff16815260200190815260200160002060009054906101000a900460ff16151514610a26576040517f08c379a0000000000000000000000000000000000000000000000000000000008152600401808060200182810382526023815260200180610d586023913960400191505060405180910390fd5b6040518060600160405280838152602001600081526020016002548152506004600060025481526020019081526020016000206000820151816000019080519060200190610a75929190610cba565b5060208201518160010155604082015181600201559050506002600081548092919060010191905055506001600660008573ffffffffffffffffffffffffffffffffffffffff1673ffffffffffffffffffffffffffffffffffffffff16815260200190815260200160002060006101000a81548160ff0219169083151502179055507e5d6dff1b2a519f04c49dd75e895e54d03d250a087d86be2fb1fe9f0a4596b960025483600460006001600254038152602001908152602001600020600101546040518084815260200180602001838152602001828103825284818151815260200191508051906020019080838360005b83811015610b83578082015181840152602081019050610b68565b50505050905090810190601f168015610bb05780820380516001836020036101000a031916815260200191505b5094505050505060405180910390a1505050565b60056020528060005260406000206000915054906101000a900460ff1681565b600360009054906101000a900473ffffffffffffffffffffffffffffffffffffffff1681565b6000806000018054600181600116156101000203166002900480601f016020809104026020016040519081016040528092919081815260200182805460018160011615610100020316600290048015610ca45780601f10610c7957610100808354040283529160200191610ca4565b820191906000526020600020905b815481529060010190602001808311610c8757829003601f168201915b5050505050908060010154905082565b60025481565b828054600181600116156101000203166002900490600052602060002090601f016020900481019282601f10610cfb57805160ff1916838001178555610d29565b82800160010185558215610d29579182015b82811115610d28578251825591602001919060010190610d0d565b5b509050610d369190610d3a565b5090565b5b80821115610d53576000816000905550600101610d3b565b509056fe5468652063616e64696461746520697320616c72656164792052656769737465726564596f7520617265206e6f7420617574686f726973656420746f2070726f63656564a2646970667358221220929910d7411d97f96878d7244da821567d6d3a24fbb4958e2d95b51e6ad9951c64736f6c63430007000033",
  "immutableReferences": {},
  "source": "pragma solidity 0.7.0;\r\n\r\ncontract Election{\r\n    \r\n    //false: not voted \r\n    //true: voted\r\n    //model a Candidate\r\n    //struct for Candidates\r\n    \r\n    event Regestering_candidate(uint256 candidate_id,  string name, uint256 total_vote);\r\n    event Voted(uint256 id);\r\n    event Leader(uint256 highest_votes, string name);\r\n    \r\n    \r\n    struct Candidate{\r\n        string name;\r\n        uint256 vote_count;\r\n        uint256 id;\r\n    }\r\n    \r\n    struct Lead{\r\n        string  name;\r\n        uint256 votes;\r\n    }\r\n    \r\n    Lead public the_one;\r\n    \r\n    uint256 public candidates_count;\r\n    \r\n    address public contractOwner;\r\n    \r\n    constructor(){\r\n        contractOwner = msg.sender;\r\n    }\r\n    \r\n    \r\n    \r\n    mapping(uint256 => Candidate)public Candidates;\r\n    mapping(address => bool) public voters;\r\n    mapping(address => bool) public candidate_exist;\r\n    modifier onlyOwner(){\r\n        require(contractOwner == msg.sender, \"You are not authorised to proceed\");\r\n        _;\r\n        \r\n    }\r\n    \r\n    modifier already_voted(){\r\n        require(voters[msg.sender] ==  false, 'The vote has already been casted');\r\n        _;\r\n    }\r\n    \r\n    modifier candidate_registered(address _add){\r\n        require(candidate_exist[_add] == false, \"The candidate is already Registered\");\r\n        _;\r\n    }\r\n    \r\n    //store Candidate    \r\n    //fetch Candidate\r\n    //store candidate count\r\n    function add_candidate(address _add, string memory _name) public onlyOwner candidate_registered(_add) {\r\n        Candidates[candidates_count] = Candidate(_name, 0, candidates_count);\r\n        candidates_count++;\r\n        candidate_exist[_add] = true;\r\n        emit Regestering_candidate(candidates_count, _name, Candidates[candidates_count - 1].vote_count );\r\n    }\r\n    \r\n    // FUNCTION TO vote\r\n    function add_vote(uint256 _id) public already_voted(){\r\n        require(_id >= 0 && _id < candidates_count, \"Invalid option\");\r\n        voters[msg.sender] = true;\r\n        Candidates[_id].vote_count++;\r\n        emit Voted(_id);\r\n        // ,Candidates[_id].vote_count\r\n    }\r\n    \r\n    // FUNCTION TO FIND THE lead\r\n    function leader() public{\r\n        uint256 max_votes = 0;\r\n        string memory name = \"\";\r\n        for(uint256 i=0; i< candidates_count; i++){\r\n            if(max_votes < Candidates[i].vote_count){\r\n                max_votes = Candidates[i].vote_count;\r\n                name = Candidates[i].name;\r\n            }\r\n        }\r\n        the_one = Lead(name, max_votes);\r\n        emit Leader(max_votes, name);\r\n    }\r\n\r\n}\r\n\r\n",
  "sourcePath": "C:\\Users\\Yohenba Kshetrimayum\\Desktop\\project\\project\\blockchain\\election\\contracts\\Election.sol",
  "compiler": {
    "name": "solc",
    "version": "0.7.0+commit.9e61f92b.Emscripten.clang"
  },
  "schemaVersion": "3.4.2",
  "updatedAt": "2021-08-11T08:25:59.232Z",
  "networkType": "ethereum",
  "devdoc": {
    "kind": "dev",
    "methods": {},
    "version": 1
  },
  "userdoc": {
    "kind": "user",
    "methods": {},
    "version": 1
  }
}